:1000000014190010BD220000252300002523000044
:100010002523000025230000252300000000000008
:100020000000000000000000000000002523000088
:100030002523000000000000752C0000693200003C
:100040002523000025230000252300002523000090
:100050002523000081040000F904000019050000B8
:10006000690500002523000025230000252300004A
:100070002523000025230000252300002523000060
:100080002523000025230000252300002523000050
:10009000252300009D3300002523000025230000B8
:1000A0002523000025230000252300002523000030
:1000B0002523000025230000252300002523000020
:1000C00025230000252300002523000080B500AF74
:1000D0004FF4E13000F0B0F94FF00103184680BD55
:1000E00080B582B000AF7860786800F0B3F94FF067
:1000F0000103184607F10807BD4680BD80B400AF74
:100100000E4A0F4B1A600D4B03F1C8020C4B5A609C
:100110000A4A0C4B1A600B4B1B684FF000021A6026
:10012000084B1B684FF000025A60064B1B684FF0EB
:1001300000029A60BD4680BC704700BF10000010EE
:10014000DC000010D800001080B483B000AF03467C
:10015000FB71094B97F907204FEA5212F97901F028
:100160001F014FF0010000FA01F143F8221007F1DE
:100170000C07BD4680BC704700E100E080B483B04E
:1001800000AF03463960FB7197F90730002B0DDA99
:100190000E49FB7903F00F03A3F104033A68D2B2CE
:1001A0004FEAC202D2B2CB181A760AE0084997F990
:1001B00007303A68D2B24FEAC202D2B2CB1883F803
:1001C000002307F10C07BD4680BC704700ED00E03E
:1001D00000E100E080B586B000AF786039603B6830
:1001E0003B614FF003037B754FF000033B754FF00D
:1001F0000003BB7507F110037868194600F0F2FEA2
:100200004FF00003BB734FF00003FB734FF001038B
:100210003B734FF001037B7307F10C0378681946B9
:1002200001F02CFA786800F005F807F11807BD46D0
:1002300080BD00BF80B584B000AF78607A68704B35
:100240009A4232D14FF00103BB724FF000033B736F
:100250004FF00003FB724FF002037B724FF000037C
:100260003B7207F10803184602F0BEFC4FF003038F
:100270007B7207F10803184602F0B6FC60484FF0A5
:10028000010101F0A9FA4FF005004FF00901FFF755
:1002900075FF5B484FF000014FF0010201F022F9B9
:1002A0004FF00500FFF750FFA5E07A68554B9A42E2
:1002B00032D14FF00103BB724FF000033B734FF09C
:1002C0000003FB724FF00F037B724FF000033B7291
:1002D00007F10803184602F087FC4FF010037B7209
:1002E00007F10803184602F07FFC46484FF0010171
:1002F00001F072FA4FF006004FF00901FFF73EFFE0
:1003000040484FF000014FF0010201F0EBF84FF0D0
:100310000600FFF719FF6EE07A683B4B9A4232D134
:100320004FF00103BB724FF000033B734FF000032B
:10033000FB724FF00A037B724FF000033B7207F130
:100340000803184602F050FC4FF00B037B7207F1D4
:100350000803184602F048FC2B484FF0010101F059
:100360003BFA4FF007004FF00901FFF707FF26485F
:100370004FF000014FF0010201F0B4F84FF0070018
:10038000FFF7E2FE37E07A68204B9A4232D14FF015
:100390000203BB724FF000033B734FF00003FB728C
:1003A0004FF000037B724FF000033B7207F108032C
:1003B000184602F019FC4FF001037B7207F10803A5
:1003C000184602F011FC11484FF0010101F004FA47
:1003D0004FF008004FF02101FFF7D0FE0B484FF01F
:1003E00000014FF0010201F07DF84FF00800FFF727
:1003F000ABFE00E000BF07F11007BD4680BD00BFA7
:1004000000C00040000001400080094000C00940D9
:1004100080B582B000AF78603960386800F0BAFB10
:100420000346786839681A464FF0010300F0D4FF9C
:1004300007F10807BD4680BD80B582B000AF786087
:1004400003487968FFF7C6FE07F10807BD4680BD7F
:1004500000C0004080B582B000AF7860786800F0DE
:1004600099FB0346054879681A464FF0010300F0EE
:10047000B3FF07F10807BD4680BD00BF00C00040C4
:1004800080B586B000AF194800F072FF0346FB75D7
:10049000FB7D312B05D1164B3B6116483969FFF7BF
:1004A000B7FFFB7D322B05D1114BFB601148F9687A
:1004B000FFF7AEFFFB7D332B05D10D4BBB600D4825
:1004C000B968FFF7A5FFFB7D342B05D1084B7B6096
:1004D00008487968FFF79CFFFB7D0648194600F045
:1004E00013FF07F11807BD4680BD00BF00C00040E4
:1004F000D434000000C0094080B500AF044800F0CB
:1005000037FF03460348194600F0FEFE80BD00BFDA
:100510000000014000C0004080B582B000AF0F482D
:10052000FFF798FF0E4800F023FF0346FB71FB79AD
:100530000C48194600F0E8FE0A484FF0670100F049
:10054000E3FE074800F014FF03460648194600F092
:10055000DBFE07F10807BD4680BD00BFD8340000B0
:100560000080094000C0004080B500AF044800F0A2
:10057000FFFE03460348194600F0C6FE80BD00BFDB
:1005800000C0094000C0004080B500AF0F4B1B7891
:10059000DBB2012B11D10E4B1B78012B01D101F0E5
:1005A00099FD0C4B1B78DBB2012B01D101F070FBE4
:1005B000064B4FF000021A7007E0044B1B78DBB2C9
:1005C00003F1FF33DAB2014B1A7080BDE500001071
:1005D000D4020010E600001080B500AF174B184A97
:1005E0001A60184B4FF007021A60174B164A126830
:1005F00042F07F421A60154A144B1B686FEA0343AE
:100600006FEA1343136001F04DF902F05FF8FFF752
:1006100075FD0F4B1B78DBB203F10103DAB20C4B13
:100620001A700C484FF000014FF4CA520A4B01F007
:1006300009FC094802F00EFB80BD00BF14E000E099
:100640007FFC0A0010E000E01CED00E020ED00E07F
:10065000E5000010BD3400008802001080B500AF36
:10066000094B0A4A1A60084B1A68094B1A60064B74
:100670001B684FF001025A71034B1B68184601F0CA
:10068000CFF9FFF781FF80BD980200102001001014
:100690009402001090B587B000AF0346FB71FA7961
:1006A0008B4913464FEA43039B184FEAC303CB1809
:1006B00003F104031B68FB60FB68002B00F003815F
:1006C000844B1B78DBB203F10103DAB2814B1A7061
:1006D000814B1B68002B0CD1FA7913464FEA430378
:1006E0009B184FEAC3031A46794BD2187A4B1A600B
:1006F000E6E0794B1B687B61FB683B61DCE03A69B3
:100700007B695B68D31A3B613B69002B80F2A38055
:100710007B695B69002B34D07B695969FA79134690
:100720004FEA43039B184FEAC3031A46684BD3189A
:100730000B61FA797B695969654813464FEA4303AF
:100740009B184FEAC303C31803F114031960FA7925
:100750005F4913464FEA43039B184FEAC303CB1884
:1007600003F110037A691A60FA7913464FEA4303DA
:100770009B184FEAC3031A46554BD2187B695A613E
:1007800026E0FA79544B1968514813464FEA43035F
:100790009B184FEAC303C31803F1100319604E4BB3
:1007A0001968FA7913464FEA43039B184FEAC303CB
:1007B0001A46474BD3184B61FA7913464FEA430365
:1007C0009B184FEAC3031A46414BD218424B1A609A
:1007D000FA79F9793E480B464FEA43035B184FEA32
:1007E000C303C31803F110031B6859683B69C91898
:1007F000374813464FEA43039B184FEAC303C31815
:1008000003F104031960FA79314913464FEA4303AF
:100810009B184FEAC303CB1803F110031968FA7948
:100820002B4813464FEA43039B184FEAC303C318F0
:1008300003F110031B685868FA79254C13464FEAF8
:1008400043039B184FEAC303E31803F104031B6837
:10085000C31A4B6034E03B69002B2ADB7B691B69C0
:10086000002B26D1FA791A4913464FEA43039B1805
:100870004FEAC303CB1803F114037A691A60FA79BB
:1008800013464FEA43039B184FEAC3031A46104B23
:10089000D2187B691A61FA7939690D4813464FEA13
:1008A00043039B184FEAC303C31803F10403196001
:1008B00006E07B691B697B617B69002B7FF41FAFBE
:1008C000FFF762FE00E000BF07F11C07BD4690BDC8
:1008D000E8000010E50000101801001080B584B099
:1008E00000AF0346FB71FA7913464FEA43039B18A6
:1008F0004FEAC3031A46314BD318FB60304B1B78C9
:10090000DBB203F10103DAB22D4B1A70FB685B69AD
:10091000002B08D1FB681B69002B04D1294B4FF039
:1009200000021A6043E0FB685B69002B16D1FB688C
:100930001A69244B1A60234B1B684FF000025A615E
:10094000FB681B69FA6812695168FA6852688A186C
:100950005A60FB684FF000021A6128E0FB681B69CF
:10096000002B09D1FB685B694FF000021A61FB683C
:100970004FF000025A611AE0FB685B69FA6812697D
:100980001A61FB681B69FA6852695A61FB681B6946
:10099000FA6812695168FA6852688A185A60FB68E6
:1009A0004FF000021A61FB684FF000025A61FFF736
:1009B000EBFD07F11007BD4680BD00BFE800001049
:1009C000E50000101801001080B582B000AF1C4B8C
:1009D0001B687B6028E07B685B78002B0CD17B6810
:1009E0001B781846FFF77AFF7B684FF001029A7078
:1009F0007B68DB68984714E07B685B78012B10D13B
:100A00007B681B781846FFF769FF7B689A687B68EC
:100A10005A607B681B781846FFF73CFE7B68DB68F2
:100A20009847074B1B687B607B68002B03D07B6873
:100A30005B68002BCFD007F10807BD4680BD00BF23
:100A40001801001080B500AF084B1B78DBB2012BFA
:100A500008D9074B4FF001021A70064B4FF0010204
:100A60001A7001E0FFF7B0FF80BD00BFE500001085
:100A7000D4020010D602001080B485B000AF7860B8
:100A80007B681F2B06D87B68FB600D4BD3F8A83121
:100A9000BB6007E07B68A3F12003FB60084BD3F841
:100AA000AC31BB60FB68BA6822FA03F303F00303BE
:100AB000BB60BB68184607F11407BD4680BC704791
:100AC00000C00F4080B584B000AF7860184B1B6841
:100AD000BB607868FFF7D0FFF860FB68032B1BD87A
:100AE00001A252F823F000BFF90A0000010B000038
:100AF000090B0000110B00004FF00403FB600BE03A
:100B00004FF00103FB6007E04FF00203FB6003E0DE
:100B10004FF00803FB6000BFBA68FB68B2FBF3F359
:100B2000BB60BB68184607F11007BD4680BD00BF1B
:100B30000000001080B483B000AF78600B46FB70FB
:100B4000FB78012B0CD1114A104BD3F8C4107868F4
:100B50000F4B00EA030341EA0303C2F8C4300FE07D
:100B6000FB78002B0CD1094A084BD3F8C4107B68E2
:100B70006FEA03031940064B01EA0303C2F8C430CD
:100B800007F10C07BD4680BC704700BF00C00F4096
:100B9000DEF7EFEF80B485B000AF78604FF0000370
:100BA000FB6003E0FB6803F10103FB607B681B78DB
:100BB000002B0CBF00230123DBB27A6802F1010293
:100BC0007A60002BEED1FB68184607F11407BD468A
:100BD00080BC704780B400AF5A4B4FF02002C3F87E
:100BE000A021584BD3F8A03103F02003002B07D0ED
:100BF00000BF544BD3F8A03103F04003002BF8D0D2
:100C0000504B4FF00302C3F804214E4B4FF000024B
:100C1000C3F8A8214B4B4FF00002C3F8AC21494B5D
:100C20004FF00102C3F80C21464B474AC3F8842019
:100C3000444B4FF0AA02C3F88C20424B4FF05502B0
:100C4000C3F88C203F4B4FF00102C3F880203D4B8E
:100C50004FF0AA02C3F88C203A4B4FF05502C3F86C
:100C60008C2000BF374BD3F8883003F08063002B13
:100C7000F8D0344B4FF00302C3F88020314B4FF0D3
:100C8000AA02C3F88C202F4B4FF05502C3F88C20DA
:100C900000BF2C4BD3F8883003F04073002BF8D002
:100CA000284B4FF02302C3F8A420264B4FF0AA0292
:100CB000C3F8AC20234B4FF05502C3F8AC20214BB6
:100CC0004FF00102C3F8A0201E4B4FF0AA02C3F858
:100CD000AC201C4B4FF05502C3F8AC2000BF194BA1
:100CE000D3F8A83003F48063002BF8D0154B4FF0F5
:100CF0000302C3F8A020134B4FF0AA02C3F8AC20A4
:100D0000104B4FF05502C3F8AC2000BF0D4BD3F889
:100D1000A83003F44073002BF8D00A4B0B4AC3F8F9
:100D2000C420084B4FF00002C3F8C821054B43F222
:100D30003A021A60064B4FF000029A60BD4680BC32
:100D4000704700BF00C00F4063000500DE87280425
:100D500000ED00E080B582B000AF786008484FF049
:100D60000001084A084B01F06DF84FF000004FF009
:100D700000014FF000024FF4FA7301F0F5FBF4E7C5
:100D8000C931000040000200900C001080B58EB008
:100D900000AF786039604FF0000387F837304FF0CC
:100DA0000003FB604FF00003BB604FF000037B6269
:100DB0004FF001033B624FF00003FB614FF0000373
:100DC000BB614FF000037B61804B3B617A68804BD5
:100DD0009A4205D14FF00600FFF774FE38631CE01D
:100DE0007A687C4B9A4205D14FF00800FFF76AFE03
:100DF000386312E07A68784B9A4205D14FF03000A0
:100E0000FFF760FE386308E07A68744B9A4204D1B9
:100E10004FF03200FFF756FE38633B6B4FEA131377
:100E20003B634FF00103FB625CE04FF00003BB62E9
:100E30004CE0FB6A3A6B02FB03F2F96ABB6ACB181F
:100E4000B2FBF3F3BB60BA683B68B2FBF3F37B62BF
:100E5000BB683A68B3FBF2F2396801FB02F29A1AF6
:100E60003B684FEA53039A4203D97B6A03F10103BB
:100E70007B627B6A022B25D97A6A4FF6FF739A420E
:100E800020D8BA687B6AB2FBF3F3FB60FA683B6870
:100E90009A4204D83A68FB68D31A7B6103E0FA6887
:100EA0003B68D31A7B617A693B699A420AD2FB6A32
:100EB0003B62BB6AFB617B6ABB617B693B617B69AF
:100EC000002B07D0BB6A03F10103BB62BB6A0F2B87
:100ED000AFD900E000BF7B69002B07D0FB6A03F1AC
:100EE0000103FB62FB6A0F2B9FD900E000BF3A6849
:100EF00013464FEA43039A18394BA3FB02134FEAF8
:100F000053123B699A425AD97A68324B9A4228D195
:100F10007B687A68127BD2B262F07F02D2B21A7317
:100F20007B68BA694FEA1222D2B21A717B68BA6939
:100F3000D2B21A707B687A68127BD2B202F07F025A
:100F4000D2B21A737B683A6A4FEA021202F0FF01CA
:100F5000FA6902F00F0241EA020202F0FF029A620D
:100F600029E07B681B7BDBB263F07F03DAB27B682E
:100F70001A73BB694FEA1323DAB27B681A71BB6933
:100F8000DAB27B681A707B681B7BDBB203F07F03ED
:100F9000DAB27B681A733B6ADBB24FEA0313DAB248
:100FA000FB69DBB203F00F03DBB242EA0303DAB200
:100FB0007B6883F828204FF0010387F8373097F8D3
:100FC0003730184607F13807BD4680BDA0860100BE
:100FD00000C00040000001400080094000C00940FE
:100FE0001F85EB5180B584B000AF786039607A68B6
:100FF0008D4B9A4210D07A688C4B9A420CD07A680A
:101000008B4B9A4208D07A688A4B9A4204D08A481D
:101010004FF0BF0101F08AF93B685B79002B10D0DB
:101020003B685B79012B0CD03B685B79022B08D0C5
:101030003B685B79032B04D07F484FF0C00101F07F
:1010400075F93B689B79002B08D03B689B79012B95
:1010500004D079484FF0C10101F068F93B681B7971
:10106000002B14D03B681B79012B10D03B681B79F7
:10107000022B0CD03B681B79032B08D03B681B79F3
:10108000042B04D06C484FF0C20101F04FF97A688C
:10109000654B9A4205D14FF008004FF00101FFF770
:1010A00049FD7A68614B9A4205D14FF010004FF02C
:1010B0000101FFF73FFD7A685D4B9A4205D14FF081
:1010C00080704FF00101FFF735FD7A68594B9A4265
:1010D00005D14FF000704FF00101FFF72BFD7A684A
:1010E000524B9A424ED17B684FF007021A727B68CE
:1010F0004FF000021A7203E07B681B78DBB2FB60E2
:101100007B681B7DDBB203F00103DBB2002BF3D164
:101110007B684FF0800283F8302000BF7B681B7D26
:10112000DBB203F02003002BF8D07B684FF0000205
:1011300083F830207B684FF000025A607B684FF0E4
:1011400000021A737B684FF000021A627B684FF04E
:1011500000021A747B684FF0000283F84C207B6811
:101160004FF0000283F854207B684FF0000283F8B0
:1011700050207B681B7EDBB2FB607B681B7DDBB293
:10118000FB6036E07B684FF007021A727B684FF015
:1011900000021A7203E07B681B78DBB2FB607B689D
:1011A0001B7DDBB203F00103DBB2002BF3D17B68C4
:1011B0004FF0800283F8302000BF7B681B7DDBB2DC
:1011C00003F02003002BF8D07B684FF0000283F877
:1011D00030207B684FF000025A607B684FF00002BD
:1011E0001A737B684FF000021A627B681B7DDBB2CA
:1011F000FB607A680F4B9A4204D17B684FF0000283
:1012000083F824203B681B6878681946FFF7BEFD09
:101210007A68064B9A4211D17B681B7BDBB203F0E4
:10122000C003FB6010E000BF00C0004000000140B0
:101230000080094000C00940DC3400007B681B7B53
:10124000DBB203F0C003FB603B685B79012B04D089
:10125000022B07D0002B0FD009E0FB6843F00103FD
:10126000FB600AE0FB6843F00203FB6005E0FB68FB
:1012700043F00303FB6000E000BF3B681B79002BD9
:1012800024D0FB6843F00803FB603B681B7903F143
:10129000FF33032B19D801A252F823F0CB12000020
:1012A000AD120000B7120000C1120000FB6843F04D
:1012B0001003FB600AE0FB6843F02003FB6005E0DD
:1012C000FB6843F03003FB6000E000BF3B689B79A4
:1012D000012B04D1FB6843F00403FB6000E000BF76
:1012E0007A68084B9A4204D17B68FA68D2B21A73C2
:1012F00003E0FB68DAB27B681A7307F11007BD469A
:1013000080BD00BF0000014080B582B000AF7860B2
:101310000B46FB707A68114B9A4210D07A68104BDA
:101320009A420CD07A680F4B9A4208D07A680E4BDA
:101330009A4204D00D4840F2CF1100F0F7FF7A68CE
:10134000074B9A4203D17B68FA781A7002E07B68F7
:10135000FA781A7007F10807BD4680BD00C000404A
:10136000000001400080094000C00940DC3400005A
:1013700080B582B000AF78607A68124B9A4210D084
:101380007A68114B9A420CD07A68104B9A4208D076
:101390007A680F4B9A4204D00E4840F2E71100F0F1
:1013A000C5FF7A68084B9A4203D17B681B78DBB291
:1013B00002E07B681B78DBB2184607F10807BD46E0
:1013C00080BD00BF00C00040000001400080094017
:1013D00000C00940DC34000080B58AB000AFF8607E
:1013E000B9607A60FB70BB687B617B687B62FB786D
:1013F000012B3ED14FF000033B6236E04FF0FF334C
:10140000FB6106E0FB69002B0BD0FB6903F1FF33A6
:10141000FB61FB681B7DDBB203F02003002BF1D0E6
:1014200000E000BFFB69002B52D04FF01003BB61FE
:1014300015E07B691B787A6902F101027A61F8682C
:101440001946FFF761FFBB6903F1FF33BB617B6A9C
:1014500003F1FF337B623B6A03F101033B62BB692B
:10146000002B02D07B6A002BE3D17B6A002BC5D115
:1014700031E04FF000033B6226E0FB681B7DDBB2EE
:1014800003F02003002B25D04FF01003BB6115E0C3
:101490007B691B787A6902F101027A61F868194662
:1014A000FFF732FF7B6A03F1FF337B62BB6903F115
:1014B000FF33BB613B6A03F101033B62BB69002B55
:1014C00002D07B6A002BE3D17B6A002BD5D102E0EE
:1014D00000BF00E000BF3B6A184607F12807BD4681
:1014E00080BD00BF80B584B000AF786013460A4667
:1014F000FA70BB707A685C4B9A4210D07A685B4B8A
:101500009A420CD07A685A4B9A4208D07A68594B62
:101510009A4204D058484FF4287100F007FFBB7876
:10152000002B07D0BB78012B04D0534840F2A121F7
:1015300000F0FCFEFB78062B2CD801A252F823F019
:101540005D150000651500006D15000075150000A3
:101550007D150000851500008D1500004FF001037A
:10156000FB6017E04FF00203FB6013E04FF0040351
:10157000FB600FE04FF00803FB600BE04FF08003CF
:10158000FB6007E04FF48073FB6003E04FF40073EF
:10159000FB6000BF7A68354B9A421AD1FB78002B6A
:1015A0002BD0FB78012B28D0FB78022B25D0FB78A1
:1015B000052B22D0FB78062B1FD0FB78032B1CD0E9
:1015C000FB78042B19D02C4840F2BD2100F0AEFE70
:1015D00013E0FB78002B10D0FB78012B0DD0FB78AB
:1015E000022B0AD0FB78052B07D0FB78062B04D002
:1015F000214840F2C12100F099FEBB78012B12D1A5
:101600007A681A4B9A4207D17B687A685168FA68FF
:1016100041EA02025A6023E07B685A68FB681A4379
:101620007B685A601CE07A68104B9A420CD17A6849
:101630007B685968FB686FEA0303194040F28F33F7
:1016400001EA030353600BE07B685A68FB686FEAAA
:1016500003031A4040F2073302EA03037A68536037
:1016600007F11007BD4680BD00C0004000000140EA
:101670000080094000C00940DC34000080B584B01F
:1016800000AF786039604FF00003FB737A684D4B10
:101690009A4210D07A684C4B9A420CD07A684B4BE5
:1016A0009A4208D07A684A4B9A4204D049484FF48B
:1016B0004B7100F03BFE3B68DB78002B10D03B68A1
:1016C000DB78012B0CD03B68DB78022B08D03B6821
:1016D000DB78032B04D03F4840F22D3100F026FE8A
:1016E0003B689B78002B08D03B689B78012B04D08B
:1016F000384840F22E3100F019FE3B681B78002B71
:1017000008D03B681B78012B04D0324840F22F31BF
:1017100000F00CFE3B685B78002B08D03B685B78E0
:10172000012B04D02B484FF44C7100F0FFFDFB7BE4
:1017300043F00103FB733B68DB78012B04D0022BE1
:1017400007D0002B0FD009E0FB7B43F04003FB7375
:101750000AE0FB7B63F07F03FB7305E0FB7B63F038
:101760003F03FB7300E000BF3B685B78012B03D1B4
:10177000FB7B43F00403FB733B681B78012B03D115
:10178000FB7B43F00203FB733B689B78012B03D187
:10179000FB7B43F00803FB737A680B4B9A4206D13C
:1017A0007B68FA7B22F03002D2B21A7205E0FB7B32
:1017B00023F03003DAB27B681A7207F11007BD46D6
:1017C00080BD00BF00C00040000001400080094013
:1017D00000C00940DC34000080B582B000AF786002
:1017E0000B46FB707A682A4B9A4210D07A68294BD4
:1017F0009A420CD07A68284B9A4208D07A68274BD4
:101800009A4204D0264840F2DF3100F08FFDFB7889
:10181000002B07D0FB78012B04D021484FF47871BE
:1018200000F084FDFB78012B19D17A68194B9A429C
:101830000AD17B687A6892F83020D2B262F07F02D7
:10184000D2B283F830201FE07B6893F83030DBB2EF
:1018500063F07F03DAB27B6883F8302014E07A68A3
:101860000C4B9A4208D17B6893F830307B684FF07C
:10187000000283F8302007E07B6893F830307B6803
:101880004FF0000283F8302007F10807BD4680BD05
:1018900000C00040000001400080094000C0094035
:1018A000DC34000080B485B000AF184BBB60184B2F
:1018B0007B604FF00003FB7315E0BB68FA7B9A7105
:1018C000BB684FF003025A71BB687A685A62BB6802
:1018D00003F12C03BB607B6803F12C037B60FB7B73
:1018E00003F10103FB73FB7B042BE6D9BB68FA7B96
:1018F0009A71BB684FF000025A62064B034A1A60A5
:1019000007F11407BD4680BC704700BF20010010DE
:101910004C0100108C02001080B487B000AF7860DA
:101920007B681B79FB737B684FF000025A71374B61
:101930001B683B613B691B79FA7B9A421ED13A696D
:101940007B689A421AD03B69002B17D0304BD3E901
:101950000001304BD3E90023904271EB030C0DD210
:101960003B695B8918464FF000012A4BD3E90023FD
:10197000121843EB01032649C1E90023264B1B68DB
:101980003B613B69002B07D1244B4FF001021A70D9
:10199000214B7A681A6034E03B691B79FA7B9A42E2
:1019A0000DD21E4B4FF001021A707B683A695A62E1
:1019B0003B697A689A62184B7A681A6021E03B6941
:1019C0005B6A7B6109E07B691B79FA7B9A4208D3E9
:1019D0007B693B617B695B6A7B617B69002BF2D130
:1019E00000E000BF7B687A695A623B697A685A6294
:1019F0007B683A699A627B69002B02D07B697A68BE
:101A00009A6207F11C07BD4680BC7047980200101F
:101A1000A00200108804001090020010E6000010E0
:101A200080B483B000AF78607B685B6A002B08D11C
:101A30007B689B6A002B04D11D4B4FF000021A609B
:101A400031E07B689B6A002B0DD17B685A6A184B8A
:101A50001A607B684FF000025A62154B1B684FF00A
:101A600000029A621FE07B685B6A002B09D17B68E9
:101A70009B6A4FF000025A627B684FF000029A6244
:101A800011E07B689B6A7A68526A5A627B685B6A7B
:101A90007A68926A9A627B684FF000025A627B68A9
:101AA0004FF000029A6207F10C07BD4680BC7047F8
:101AB0009002001080B586B000AF02460B46FA7166
:101AC000BB71FB79002B02D14FF01403CFE0FB79FF
:101AD000052B02D94FF00103C9E0FB794FF02C022E
:101AE00002FB03F2644BD3187B617B695B79032BA8
:101AF00002D14FF00103BAE0BB79402B02D94FF07D
:101B00000103B4E07B691B79BA799A4200F0AD8099
:101B10007B69DB79FF2B17D07B69DB794FEAC30246
:101B2000564BD318FB60FB689A787B699B799A4285
:101B30000AD1FB68BA791A707B691B79BA799A4223
:101B400002D94FF0000392E07B69BA791A717B6980
:101B50005B79002B10D14A4B1B78DBB203F10103F8
:101B6000DAB2474B1A707869FFF75AFF7869FFF7C6
:101B7000D3FEFEF709FD78E07B695B79012B15D177
:101B80007B691A793F4B1B681B799A426DD93C4B94
:101B90001B78DBB203F10103DAB2394B1A703A4B0E
:101BA0004FF001021A70FEF7EFFC5EE07B69DB7913
:101BB000FF2B39D0324B1B78DBB203F10103DAB2D1
:101BC0002F4B1A707B69DB794FEAC3022B4BD3187A
:101BD000FB60FB685B687B61FB681B78FB74FB68E0
:101BE0009A78FB68DA700EE07B691B79FA7C9A427E
:101BF00006D97B691B79FB747B699A79FB68DA707B
:101C00007B695B6A7B617B69002BEDD1FEF7BCFCD5
:101C1000FB681B78FA7C9A4206D0FB689A78FB7CBA
:101C200010461946FFF746FFFB794FF02C0202FBE6
:101C300003F2114BD3187B617B691B7AFF2B14D005
:101C40007B691B7A4FEA0312104BD318BB60BB6849
:101C50005B7923F00F03DBB2202B06D1786900F00B
:101C600093FEB868796900F075FD4FF000031846DF
:101C700007F11807BD4680BD2001001024040010A4
:101C8000E500001090020010E6000010DC020010D9
:101C900080B584B000AF4E4B1B68FB604D4B1B689A
:101CA000BB60BB68002B00F083804B4B1B68FA685D
:101CB0009A427FD1494B1B78DBB2012B7CD8484B31
:101CC0001B78DBB2002B79D1464B4FF000021A7023
:101CD000FB681B79FB71BB681B79BB71FB685B7987
:101CE000012B0AD03C4BBA681A60BB684FF0010266
:101CF0005A71B868FFF794FE2FE0BA79FB799A42DF
:101D00000DD2354BBA681A60F868FFF705FEB8685F
:101D1000FFF786FEBB684FF001025A711DE0FA79A9
:101D2000BB799A424CD1304BD3E900012F4BD3E918
:101D3000002382EA000283EA010352EA030141D14F
:101D4000254BBA681A60F868FFF7E6FDB868FFF738
:101D500067FEBB684FF001025A711F4B1B681A796E
:101D60001C4B1B681B799A420ED11B4B1B685B896D
:101D700018464FF000011D4BD3E90023121843EB26
:101D800001031949C1E90023FB681A68FB68DB6895
:101D90009A4205D3FB68DB681A68154B9A4204D057
:101DA000FB689B79184601F08FFB00F059FF0AE0B1
:101DB00000BF08E000BF06E000BF04E000BF02E093
:101DC00000BF00E000BF07F11007BD4680BD00BFA7
:101DD000980200109002001094020010E50000101C
:101DE000E4000010E6000010A002001088040010BB
:101DF000A5A55A5A80B582B000AF104B1B78DBB254
:101E000003F10103DAB20D4B1A700D4B1B68002B66
:101E100004D1FEF7B9FB4FF000030AE0084B1B6842
:101E20007B60074B1B685A6A054B1A60FEF7ACFBD8
:101E30007B68184607F10807BD4680BDE500001025
:101E40008C02001080B588B000AFF860B9607A608D
:101E50003B607A684A4B02EA03034FEA1323BB83D1
:101E60007B68FB76FB68002B02D14FF0FF0382E01A
:101E70003B68002B02D14FF0FF037CE0FB7E402B40
:101E800002D94FF0FF0376E0BB8B132B02D84FF043
:101E9000FF0370E0F868B9683A6801F0B7F9786153
:101EA000FFF7A8FF38613B69002B02D14FF0FF0319
:101EB00061E03B697A691A603B69FA7E1A71BA8BF4
:101EC00013464FEA83739B1A4FEA830303F104031B
:101ED0003A68D2183B69DA603B69DB68294A1A60C4
:101EE0003B694FF0FF321A623B694FF000025A62C1
:101EF0003B694FF000029A627A68234B02EA0303BF
:101F00004FEA1353FB83FB8B002B02D14FF00A03E4
:101F1000FB833B69FA8B5A813B694FF00002DA611F
:101F20003B694FF0FF021A723B694FF000021A61E1
:101F30003B694FF000025A613B694FF000029A6121
:101F40003B694FF0FF02DA717B68002B0DDB0F4B12
:101F50001B78DBB203F10103DAB20C4B1A7038695B
:101F6000FFF7DAFCFEF710FB03E03B694FF00202DB
:101F70005A713B699B79184607F12007BD4680BD21
:101F800000FF0F00A5A55A5A0000FF7FE5000010D2
:101F900080B584B000AF0346FB71FB79052B02D9F5
:101FA0004FF001037AE0FB794FF02C0202FB03F2C1
:101FB0003D4BD318FB60FB685B79032B02D14FF0DC
:101FC00001036BE0FB79002B02D14FF0140365E0B5
:101FD000FB685B79012B07D1344B1B78DBB2002BFC
:101FE00002D04FF0150359E0FB68DB79FF2B0FD0CF
:101FF000FB68DB792E4A4FEAC303D3189A78FB6853
:102000009B799A4204D1FB68DB79184600F0B2FE56
:10201000264B1B78DBB203F10103DAB2234B1A70B3
:10202000FB685B79002B03D1F868FFF7F9FC22E02D
:10203000FB685B79022B1ED1FB681B6AB3F1FF3F83
:1020400002D0F86800F0F2F9FB681B7AFF2B02D08F
:10205000F86800F099FCFB68DB69002B04D0FB6892
:10206000DB69184601F068F8FB68DB79FF2B02D0CA
:10207000F86800F025FFFB684FF003025A710D4B22
:102080004FF001021A700C4B1A68FB685A620A4B37
:10209000FA681A60FEF778FA4FF00003184607F165
:1020A0001007BD4680BD00BF20010010E5000010F4
:1020B00024040010E60000108C02001080B500AF70
:1020C000034B1B689B791846FFF762FF80BD00BF7A
:1020D0009802001080B582B000AF404B1B78012BF6
:1020E00005D100F09BFA3D4B4FF000021A703C4BBB
:1020F0001B78012B5AD1FEF767FC394B4FF00002D9
:102100001A7056E000F0A0FD364B5B78354A4FEA76
:10211000C303D3183A4603F1040393E8030082E8AB
:102120000300304B5B7803F101012F4B83FB01234C
:102130004FEA63024FEAE173D21A13464FEA830370
:102140009B18CA1AD2B2274B5A70264B1B7803F140
:10215000FF33DAB2234B1A7000F070FD3B7803F1C5
:10216000FF33032B24D801A252F823F07D21000075
:1021700087210000952100009F2100007B781846F0
:1021800001F0C8F815E07A787B681046194600F02F
:1021900053F80EE07B78184600F016FF09E07A78D5
:1021A0007B681046194600F083FD02E000BF00E0A6
:1021B00000BF0C4B1B78002BA4D100F045FD094B50
:1021C0001B78002B03D1094B4FF000021A7000F06E
:1021D00035FD07F10807BD4680BD00BFD5020010E0
:1021E000D6020010A802001067666666D4020010CE
:1021F00080B500AFFEF7EEFCFEF7EEF905484FF0B4
:1022000000014FF40152044BFFF71CFEFEF726FAC3
:10221000FEE700BF550D0000100D001080B582B024
:1022200000AF78600348FDF75BFF4FF4967000F055
:102230005DF9F7E74835000080B584B000AF03468C
:102240003960FB71FB79132B02D94FF001032CE0AD
:10225000FB794FEA0312174BD318FB60FB685B79DD
:1022600003F00F03DBB2022B02D04FF001031CE09E
:10227000FB68DB88002B16D10F4B1B78DBB203F118
:102280000103DAB20C4B1A70FB683A681A60FB68FB
:102290004FF00102DA80F86800F0E2FAFEF774F914
:1022A0004FF0000301E04FF00703184607F1100755
:1022B000BD4680BDDC020010E500001080B582B094
:1022C00000AF134B7B60134B3B600BE07B681A68DD
:1022D0003B681A603B6803F104033B607B6803F1D1
:1022E00004037B603A680C4B9A42EFD30B480C49CD
:1022F0004FF000028842B8BF40F8042BFADBFEF72B
:1023000069FCFFF775FF07F10807BD4680BD00BFF8
:102310006C350000000000101000001010000010CC
:102320001415001080B400AFFEE700BF80B483B086
:1023300000AF78603960FEE780B485B000AF7860A8
:1023400039603B68002B67D0364B1B68002B06D1E9
:102350007B683A681A62334B7A681A6053E0314BF3
:102360001B68BB603B68FB604AE0FA68BB681B6A9D
:10237000D31AFB60FB68002B2EDABB689B6A002B2C
:102380000ED0BB689B6A7A685A62BB689A6A7B689F
:102390009A627B68BA685A62BB687A689A620AE095
:1023A000204B1A687B685A621E4B1B687A689A62D7
:1023B0001C4B7A681A607B685B6A1A6AFB68D218E1
:1023C0007B681A627B685B6A7A68526A116A7A680B
:1023D000126A8A1A1A6216E0FB68002B0DDBBB68D2
:1023E0005B6A002B09D17B68BA689A62BB687A681D
:1023F0005A62FA687B681A6205E0BB685B6ABB6078
:10240000BB68002BB1D17B684FF002025A71064BBA
:102410004FF001021A7000E000BF07F11407BD463B
:1024200080BC7047D8020010E600001080B483B072
:1024300000AF78607B689B6A002B08D17B685B6A81
:10244000002B04D1284B4FF000021A6043E07B6858
:102450009B6A002B16D17B685A6A234B1A607B68F3
:102460005B6A7A68526A116A7A68126A8A181A6212
:102470007B685B6A4FF000029A627B684FF0000253
:102480005A6228E07B685B6A002B09D17B689B6AF3
:102490004FF000025A627B684FF000029A621AE025
:1024A0007B689B6A7A68526A5A627B685B6A7A6860
:1024B000926A9A627B685B6A7A68526A116A7A6881
:1024C000126A8A181A627B684FF000025A627B68AF
:1024D0004FF000029A627B684FF0FF321A6207F1F8
:1024E0000C07BD4680BC7047D802001080B582B092
:1024F00000AF7860194B1B78DBB2002B02D04FF095
:10250000030326E07B68B3F1FF3F02D14FF00203E3
:102510001FE07B68002B02D14FF0000319E0104B45
:102520001B78DBB2002B02D04FF0150311E00C4BEF
:102530001B78DBB203F10103DAB2094B1A70094BC5
:102540001B6818467968FFF7F7FEFEF71DF84FF095
:102550000003184607F10807BD4680BDE4000010DF
:10256000E50000109802001080B584B000AFF8714B
:10257000B9717A717B80264B1B78DBB2002B02D0BD
:102580004FF003033EE0BB793B2B07D87B793B2B15
:1025900004D87A8840F2E7339A4202D94FF0020316
:1025A00030E01C4B1B78DBB2002B02D04FF0150340
:1025B00028E0FB794FF4616202FB03F1BA7913461C
:1025C0004FEA03139B1A4FEA8303CA187B79D31887
:1025D0004FF0640202FB03F27B884FF0640101FBC1
:1025E00003F303F5FA730C4981FB03014FEAA111D0
:1025F0004FEAE373CB1AD318FB60F868FFF776FF56
:102600004FF00003184607F11007BD4680BD00BF1C
:10261000E4000010E5000010D34D621080B582B0D8
:1026200000AF1C4B1B687B6028E07B681B7AFF2B8C
:1026300002D0786800F0A8F97B68DB69002B04D031
:102640007B68DB69184600F077FD7B684FF0FF324E
:102650001A627B685A6A0F4B1A607B684FF000025F
:102660005A627868FFF758F90A4B1B687B607B68F1
:10267000002B03D07B684FF000029A627B68002B2E
:1026800003D07B681B6A002BCFD007F10807BD463B
:1026900080BD00BFD802001080B500AF084B1B788A
:1026A000DBB2012B08D9074B4FF001021A70064B21
:1026B0004FF001021A7001E0FFF7B0FF80BD00BFCC
:1026C000E5000010D4020010D502001080B485B0DF
:1026D00000AF4FF00003FB731B4BBB601B4B7B60D9
:1026E00018E0BB687A681A60BB68FA7B1A71BA682E
:1026F00053794FF0040161F303035371BB6803F195
:102700001003BB607B6803F110037B60FB7B03F16C
:102710000103FB73FB7B122BE3D9BA6853794FF0AB
:10272000040161F303035371BB684FF000021A60A8
:10273000BB68FA7B1A71064B034A1A6007F114074B
:10274000BD4680BC704700BFDC020010EC020010E8
:102750001C04001080B584B000AF786039603E4B37
:102760001B78DBB203F10103DAB23B4B1A707B68D2
:10277000DB68FB607B681A793B681A727B685B795F
:1027800023F00F03DBB2102B16D1FB68002B07D10F
:102790007B683A68DA6050E0FB685B69FB6000E0E8
:1027A00000BFFB685B69002BF6D1FB683A685A6191
:1027B0003B68FA689A6140E07B685B7923F00F031D
:1027C000DBB2202B39D1FB68002B03D17B683A6840
:1027D000DA6032E0FB681A793B681B799A4209D9C2
:1027E0007B683A68DA603B68FA685A61FB683A6865
:1027F0009A6122E0FB685B69BB600AE0BB681A79FA
:102800003B681B799A4208D8BB68FB60BB685B6970
:10281000BB60BB68002BF1D100E000BFFB683A68E9
:102820005A613B68FA689A613B68BA685A61BB684A
:10283000002B02D0BB683A689A613B684FF00202F5
:102840005A71064B4FF001021A70FDF79DFE07F119
:102850001007BD4680BD00BFE5000010E600001077
:1028600080B584B000AF78607B68DB68FB60FB6894
:10287000002B00F08180FB685A697B68DA607B6816
:10288000DB68002B04D07B68DB684FF000029A61A4
:10289000FB684FF000025A61FB684FF0FF021A72AA
:1028A000FB681B6AB3F1FF3F02D0F868FFF7BEFD7B
:1028B0007B685B7903F00F03DBB2022B0FD17B68DF
:1028C0001A68FB681A617B684FF000021A607B6827
:1028D000DB8803F1FF339AB27B68DA803EE07B68E5
:1028E0005B7903F00F03DBB2032B25D17B681B68F8
:1028F000BB60BB681A68BB68DB884FEA8303D318E8
:102900001A68FB681A61BB68DB8803F101039AB29D
:10291000BB68DA80BB689B8903F1FF339AB2BB685E
:102920009A81BB68DA88BB685B899A4216D1BB681A
:102930004FF00002DA8011E07B685B7903F00F034F
:10294000DBB2012B0AD17B68DB8803F1FF339AB23B
:102950007B68DA80FB684FF0FF321A61094B1B6815
:10296000FA689A4204D1FB684FF001025A7104E000
:10297000F868FEF7D1FF00E000BF07F11007BD4681
:1029800080BD00BF9802001080B485B000AF7860B1
:102990007B681B7A4FEA0312254BD318FB607B68D8
:1029A0005B69002B08D17B689B69002B04D1FB6815
:1029B0004FF00002DA6031E07B689B69002B0DD19B
:1029C0007B685B694FF000029A617B685A69FB681B
:1029D000DA607B684FF000025A611FE07B685B6938
:1029E000002B09D17B689B694FF000025A617B681C
:1029F0004FF000029A6111E07B689B697A68526926
:102A00005A617B685B697A6892699A617B684FF06A
:102A100000029A617B684FF000025A617B684FF0B8
:102A2000FF021A7207F11407BD4680BC704700BF51
:102A3000DC02001080B487B000AF13460246FA7182
:102A40000A46BA717B71BB797B61FB794FEA43031C
:102A50003B611E4BFB607B690F2B07D97B69A3F1A0
:102A600010037B613B6903F101033B613B694FEA62
:102A70008303FA68D3183A694FEA8202F9688A1820
:102A800011687A694FEA42024FF0030000FA02F23D
:102A90006FEA020201EA02021A603B694FEA83030D
:102AA000FA68D3183A694FEA8202F9688A181168FD
:102AB00078797A694FEA420200FA02F241EA0202A8
:102AC0001A6007F11C07BD4680BC704700C0024079
:102AD00080B487B000AF13460246FA710A46BA7155
:102AE0007B71BB797B61FB794FEA43033B611E4BF2
:102AF000FB607B690F2B07D97B69A3F110037B6116
:102B00003B6903F101033B613B694FEA8303FA68C8
:102B1000D3183A694FEA8202F9688A1811687A690B
:102B20004FEA42024FF0030000FA02F26FEA02029B
:102B300001EA02021A603B694FEA8303FA68D3187C
:102B40003A694FEA8202F9688A18116878797A69D5
:102B50004FEA420200FA02F241EA02021A6007F169
:102B60001C07BD4680BC704740C0024080B485B0A1
:102B700000AF13460246FA710A46BA717B71194BCF
:102B8000FB607B79012B13D1FB794FEA8303FA6851
:102B9000D318FA794FEA8202F9688A181168BA796B
:102BA0004FF0010000FA02F241EA02021A6014E05A
:102BB000FB794FEA8303FA68D318FA794FEA820265
:102BC000F9688A181168BA794FF0010000FA02F228
:102BD0006FEA020201EA02021A6007F11407BD4619
:102BE00080BC704768C0024080B582B000AF78609A
:102BF0007B6819787B685A787B689B780846114611
:102C00001A46FFF717FF7B6819787B685A787B684C
:102C1000DB78084611461A46FFF75AFF7B68197899
:102C20007B685A787B681B79084611461A46FFF77D
:102C30009DFF07F10807BD4680BD00BF80B400AF0F
:102C400062B6BD4680BC704780B400AF72B6BD4668
:102C500080BC7047A0F11C0080F30988704700BF5A
:102C6000024B1B68024A116819607047040000108B
:102C7000080000100B4B19680B4A126891420AD0E9
:102C8000EFF3098020E9F00F08601A601068B0E8DF
:102C9000F00F80F30988054B002018704EF0040EE9
:102CA000704700009802001094020010E500001028
:102CB00080B584B000AF03463960FB71FB79132BFC
:102CC00002D94FF001034BE0FB794FEA0312274B87
:102CD000D318FB60FB685B7903F00F03DBB2032BB7
:102CE00002D04FF001033BE0FB681B68BB60BB6890
:102CF0009A89BB685B899A4202D14FF008032FE0A2
:102D00001B4B1B78DBB203F10103DAB2184B1A70CC
:102D1000BB681A68BB681B894FEA8303D3183A68FB
:102D20001A60BB681B8903F101039AB2BB681A8160
:102D3000BB689B8903F101039AB2BB689A81BB68A7
:102D40001A89BB685B899A4203D1BB684FF00002C5
:102D50001A81F868FFF784FDFDF716FC4FF00003B9
:102D6000184607F11007BD4680BD00BFDC02001009
:102D7000E500001080B586B000AF0346FB714B4BF9
:102D80001B78DBB2002B02D04FF0030388E0484BE6
:102D90001B78FA799A4202D34FF0010380E0454B49
:102DA0001B78DBB203F10103DAB2424B1A70FB79F4
:102DB0004FEAC302404BD318FB60FB689B784FF08F
:102DC0002C0202FB03F23D4BD3187B617B694FF071
:102DD000FF02DA71FB685B68002B0AD1FB684FF0D9
:102DE00000025A70FB684FF0FF029A70FDF7CCFBAF
:102DF00054E0FB689B78FB72FB68DB78FA7A9A42B6
:102E000019D1FB685B687B617B691B79FB740EE001
:102E10007B691B79FA7C9A4206D97B691B79FB7422
:102E20007B699A79FB68DA707B695B6A7B617B6995
:102E3000002BEDD108E0FB7A204A4FF02C0101FB7A
:102E400003F3D3181B79FB74FB684FF0FF029A70F1
:102E5000FB681B78FA7A10461946FEF72BFEFB68D2
:102E60005B687B617B695A6AFB685A607B691A7987
:102E7000FB681A707B699A79FB689A707B69FA7CA7
:102E80001A717B694FF000025A627B694FF00002B1
:102E90009A627869FEF740FDFDF776FB4FF000037C
:102EA000184607F11807BD4680BD00BFE4000010BA
:102EB00020040010E5000010240400102001001080
:102EC00080B586B000AF78607B68DB794FEAC302DB
:102ED0003C4BD3183B617B685B6A002B08D17B6855
:102EE0009B6A002B04D13B694FF000025A602DE031
:102EF0007B685B6A002B09D17B689B6A4FF00002FC
:102F00005A627B684FF000029A621FE07B689B6AFE
:102F1000002B09D17B685B6A4FF000029A627B68E4
:102F20004FF000025A6211E07B685B6A7A68926A2D
:102F30009A627B689B6A7A68526A5A627B684FF031
:102F400000029A627B684FF000025A627B684FF081
:102F5000FF02DA713B69DA787B689B799A422CD15F
:102F60003B695B687B603B691B78FB753B699A78C2
:102F70003B69DA700EE07B681B79FA7D9A4206D9CC
:102F80007B681B79FB757B689A793B69DA707B6893
:102F90005B6A7B607B68002BEDD13B699B78FB73A0
:102FA0003B694FF0FF029A70FA7BFB7D1046194691
:102FB000FEF780FD3B69FA7B9A7007F11807BD4662
:102FC00080BD00BF2404001080B584B000AF03466C
:102FD000FB71414BBB60FB791F2B02D94FF0010302
:102FE00074E0BB689A68FB794FF0010101FA03F3C2
:102FF00002EA0303002B02D14FF0010366E0BB6835
:103000001A68FB794FF0010101FA03F302EA0303A6
:10301000002B02D04FF0000358E0BB681A68FB7920
:103020004FF0010101FA03F31A43BB681A602B4BFE
:103030001B78DBB203F10103DAB2284B1A70BB68CC
:10304000DB68FB603BE0FB681B7C002B18D1FB6856
:103050009A68BB681B681A40FB689B689A4227D134
:10306000F86800F03DF8F860BB685A68FB794FF0EB
:10307000010101FA03F302EA0303002B1CD021E053
:10308000FB689A68BB681B6802EA0303002B0FD039
:10309000F86800F025F8F860BB685A68FB794FF0D3
:1030A000010101FA03F302EA0303002B06D009E051
:1030B000FB681B68FB6002E000BF00E000BFFB682C
:1030C000002BC0D1FDF760FA4FF00003184607F15E
:1030D0001007BD4680BD00BF74040010E50000105D
:1030E00080B584B000AF7860786800F025F87B6820
:1030F000DB68FB60FB681B6AB3F1FF3F02D0F86836
:10310000FFF794F9FB684FF0FF32DA61094B1B6857
:10311000FA689A4204D1FB684FF001025A7102E04A
:10312000F868FEF7F9FB7B681B68184607F1100783
:10313000BD4680BD9802001080B483B000AF7860B7
:103140007B681B68002B0CD17B685B68002B08D167
:103150001C4B4FF00002DA601A4B4FF000021A616C
:1031600025E07B681B68002B09D17B685A68154BEA
:103170001A617B685B684FF000021A6017E07B6899
:103180005B68002B09D17B681A680E4BDA607B689C
:103190001B684FF000025A6009E07B681B687A6880
:1031A00052685A607B685B687A6812681A607B684C
:1031B000DB684FF00002DA6107F10C07BD4680BC06
:1031C000704700BF7404001080B582B000AF786013
:1031D000FCF77CFF0346012B02D10848FCF780FF77
:1031E00007484FF00001074A074BFEF72BFEFEF79A
:1031F00065FF07F10807BD4680BD00BF58350000D8
:103200001D220000400002001015001080B487B09D
:1032100000AFF860B9607A607B687B617B694FF0D2
:1032200080721A607B69A3F104037B61FA687B6991
:103230001A607B69A3F104037B617B696FF0010273
:103240001A607B69A3F114037B61BA687B691A6019
:103250007B69A3F120037B617B69184607F11C079A
:10326000BD4680BC704700BF80B500AF244B1B78C3
:10327000DBB203F10103DAB2214B1A70214BD3E91F
:1032800000014FF001024FF00003121843EB01035D
:103290001C49C1E900231C4B1B68002B12D01A4BA0
:1032A0001B681B6A012B06D9174B1B681A6A02F1AF
:1032B000FF321A6206E0144B1B684FF000021A62DC
:1032C000FFF7EAF9114B1B68002B12D00F4B1B685C
:1032D0005B68012B06D90D4B1B685A6802F1FF325F
:1032E0005A6006E0094B1B684FF000025A60FDF778
:1032F000A9FB074B4FF001021A70FDF745F980BD9D
:10330000E500001088040010D80200101801001019
:10331000E600001080B584B000AF0346FB71FB7976
:10332000132B02D94FF001032EE0FB794FEA031271
:10333000184BD318FB60FB685B7903F00F03DBB21B
:10334000012B02D04FF001031EE0FB68DA88FB6816
:103350001B899A4202D14FF0060315E00E4B1B78F1
:10336000DBB203F10103DAB20B4B1A70FB68DB88A6
:1033700003F101039AB2FB68DA80F868FFF770FA8C
:10338000FDF702F94FF00003184607F11007BD469C
:1033900080BD00BFDC020010E500001080B582B0E7
:1033A00000AF444B5A68434B1B691A40414B996824
:1033B000404B5B6901EA030342EA03037B603D4B38
:1033C0007A68DA604FF00003FB7021E0FB787A68DE
:1033D00022FA03F303F00103DBB2002B14D0FB78D5
:1033E0004FF0010202FA03F36FEA03037A6802EA7C
:1033F00003037B60304B1B68002B05D02E4B1B68F2
:10340000FA7892B210469847FB7803F10103FB70FB
:103410007B68002B02D0FB781E2BD7D9254B5A6A2C
:10342000244B1B6B1A40234B996A224B5B6B01EABE
:10343000030342EA03037B601E4B7A68DA624FF0B3
:103440000003FB702BE0FB787A6822FA03F303F0A9
:103450000103DBB2002B1ED0FB784FF0010202FA11
:1034600003F36FEA03037A6802EA03037B60124BFB
:103470001B68002B08D0104B1B68FA7892B242F4FC
:10348000007292B2104698470A4BFA784FF0010149
:1034900001FA02F2DA62FB7803F10103FB707B6848
:1034A000002B02D0FB781E2BCDD907F10807BD46B3
:1034B00080BD00BF808002409004001080B483B0C3
:1034C00000AF7860FEE700BF80B483B000AF034672
:1034D000FB71FEE724242400686F6900443A5C4DC8
:1034E0007920446F63756D656E74735C686C6F777B
:1034F0002D71756164636F707465725C6272616E68
:10350000636865735C6D62656420736F6674776170
:1035100072655C686C6F772D71756164636F707430
:1035200065725C6C7063313778785F6C69625C736C
:103530006F757263655C6C7063313778785F756145
:1035400072742E630000000048656C6C6F2074611B
:10355000736B210A000000004163747561746F721F
:0C356000732073746172746564210A00AA
:10356C0000E1F50504ED00E000000010FCFFFFFF9A
:00000001FF
